:100000000C942A000C9447000C9447000C94470071
:100010000C9447000C9447000C9447000C94F8177C
:100020000C9447000C942B180C9447000C94470038
:100030000C9447000C948B190C9447000C944700C7
:100040000C9447000C9447000C9447000C94470014
:100050000C94470011241FBECFE5D8E0DEBFCDBF12
:1000600011E0A0E6B0E0E6EBF4E302C005900D92EB
:10007000A639B107D9F711E0A6E9B1E001C01D9298
:10008000A43AB107E1F70E94EE0F0C94591A0C94B0
:100090000000EF92FF920F931F937B018C0120E0F1
:1000A00030E040E05FE40E94490388238CF0C801FF
:1000B000B70120E030E040E05FE40E94C1010E940F
:1000C000A9039B01AC01205030404040504806C07D
:1000D000C801B7010E94A9039B01AC01B901CA0183
:1000E0001F910F91FF90EF900895A0E0B0E0EBE733
:1000F000F0E00C94DD19DC012B01FA019C919230A7
:1001000008F439C1EB018881823008F433C194309E
:1001100069F4843009F02FC111969C91119789815F
:10012000981709F428C1ADE8B1E025C1843009F47D
:1001300021C18230A9F4923009F01DC19A01AD01AC
:1001400088E0EA010990AE01E90109929E0181501F
:10015000C1F7E201898111969C918923818308C1AD
:10016000923009F407C112962D903C901397EB0141
:100170008A819B811496AD90BD90CD90DC901797AD
:10018000EC80FD800E811F819101281B390BB90184
:1001900037FF04C066277727621B730B6032710537
:1001A0000CF061C0121613066CF537014801062EDB
:1001B00004C096948794779467940A94D2F721E0C8
:1001C00030E040E050E004C0220F331F441F551FB1
:1001D0006A95D2F721503040404050402E213F21B7
:1001E00040235123211531054105510521F021E01E
:1001F00030E040E050E079018A01E628F72808293C
:1002000019293CC0232BD1F1260E371E350146019A
:10021000062E04C096948794779467940A94D2F734
:1002200021E030E040E050E004C0220F331F441FC3
:10023000551F6A95D2F721503040404050402A2146
:100240003B214C215D21211531054105510521F04E
:1002500021E030E040E050E059016A01A628B728CB
:10026000C828D9280BC0821593052CF01C01AA249C
:10027000BB24650103C0EE24FF24870111969C91E5
:10028000D20111968C91981709F445C0992339F041
:10029000A80197012A193B094C095D0906C0A6016E
:1002A00095012E193F09400B510B57FD08C01182D3
:1002B0003382228224833583468357831DC081E0A5
:1002C00081833382228288279927DC01821B930B4A
:1002D000A40BB50B84839583A683B7830DC0220F2F
:1002E000331F441F551F24833583468357838281E0
:1002F000938101979383828324813581468157813D
:10030000DA01C9010197A109B1098F5F9F4FAF4F72
:10031000BF4328F30BC0918333822282EA0CFB1C7B
:100320000C1D1D1DE482F5820683178383E0808304
:10033000248135814681578157FF1AC0C901AA27F8
:1003400097FDA095BA2F81709070A070B0705695EF
:10035000479537952795822B932BA42BB52B848318
:100360009583A683B7838281938101969383828349
:10037000DF0101C0D201CD01CDB7DEB7E2E10C94BF
:10038000F919A0E2B0E0E7ECF1E00C94E919698317
:100390007A838B839C832D833E834F835887E9E048
:1003A000EE2EF12CEC0EFD1ECE010196B7010E943F
:1003B000D2048E010F5E1F4FCE010596B8010E9438
:1003C000D2048A8991E089278A8BC701B801AE01DE
:1003D000475E5F4F0E9475000E94FD03A096E6E015
:1003E0000C94051AA0E2B0E0E8EFF1E00C94E919F2
:1003F00069837A838B839C832D833E834F835887C5
:10040000F9E0EF2EF12CEC0EFD1ECE010196B701A6
:100410000E94D2048E010F5E1F4FCE010596B801D7
:100420000E94D204C701B801AE01475E5F4F0E942F
:1004300075000E94FD03A096E6E00C94051AA0E268
:10044000B0E0E5E2F2E00C94DD1969837A838B83F6
:100450009C832D833E834F835887CE010196BE0136
:10046000675F7F4F0E94D204CE010596BE016F5E8A
:100470007F4F0E94D2049985923088F0898982301A
:10048000C8F0943019F4823051F404C0843029F457
:10049000923081F48DE891E0C6C0923049F420E0BA
:1004A0009A858A89981321E02A87CE010996BBC0D4
:1004B000823049F420E09A858A89981321E02A8BBA
:1004C000CE014196B0C02D843E844F8458886D88FB
:1004D0007E888F88988CEE24FF248701AA24BB2471
:1004E000650140E050E060E070E0E0E0F0E0C10174
:1004F00081709070892BE9F0E60CF71C081D191D1E
:100500009A01AB012A0D3B1D4C1D5D1D80E090E062
:10051000A0E0B0E0E614F7040805190520F481E036
:1005200090E0A0E0B0E0BA01A901480F591F6A1F8E
:100530007B1FAA0CBB1CCC1CDD1C97FE08C081E0F5
:1005400090E0A0E0B0E0A82AB92ACA2ADB2A3196B6
:10055000E032F10549F0660C771C881C991C569412
:10056000479437942794C3CFFA85EA892B893C892D
:100570008B859C85280F391F2E5F3F4F17C0CA01FE
:1005800081709070892B61F016950795F794E79428
:1005900080E090E0A0E0B0E8E82AF92A0A2B1B2BC3
:1005A00076956795579547952F5F3F4F77FDE7CF36
:1005B0000CC0440F551F661F771F17FD4160EE0CDE
:1005C000FF1C001F111F21503040403090E05907A0
:1005D00090E0690790E4790760F32B8F3C8FDB0193
:1005E000CA018F779070A070B07080349105A1051A
:1005F000B10561F447FD0AC0E114F10401051105DC
:1006000029F0405C5F4F6F4F7F4F40781A8EFE1786
:1006100011F081E08A8F4D8F5E8F6F8F78A383E01A
:10062000898FCE0149960E94FD03A096E2E10C94C9
:10063000F919A8E1B0E0EFE1F3E00C94E91969835E
:100640007A838B839C832D833E834F83588789E0F5
:10065000E82EF12CEC0EFD1ECE010196B7010E9492
:10066000D2048E010F5E1F4FCE010596B8010E9485
:10067000D2048985823040F08989823028F0C70110
:10068000B8010E944A0501C08FEF6896E6E00C941D
:10069000051AA8E1B0E0EFE4F3E00C94E9196983EE
:1006A0007A838B839C832D833E834F83588789E095
:1006B000E82EF12CEC0EFD1ECE010196B7010E9432
:1006C000D2048E010F5E1F4FCE010596B8010E9425
:1006D000D2048985823040F08989823028F0C701B0
:1006E000B8010E944A0501C08FEF6896E6E00C94BD
:1006F000051AA8E1B0E0EFE7F3E00C94E91969838B
:100700007A838B839C832D833E834F83588789E034
:10071000E82EF12CEC0EFD1ECE010196B7010E94D1
:10072000D2048E010F5E1F4FCE010596B8010E94C4
:10073000D2048985823040F08989823028F0C7014F
:10074000B8010E944A0501C081E06896E6E00C9479
:10075000051AACE0B0E0EFEAF3E00C94ED19698320
:100760007A838B839C83CE010196BE016B5F7F4FA2
:100770000E94D2048D81823061F1823050F1843048
:1007800021F48E81882351F12EC02F81388537FDC9
:1007900020C06E812F3131051CF06623F9F023C093
:1007A0008EE190E0821B930B29853A854B855C8511
:1007B00004C056954795379527958A95D2F76623B5
:1007C000B1F050954095309521953F4F4F4F5F4F79
:1007D0000EC020E030E040E050E009C02FEF3FEFD6
:1007E0004FEF5FE704C020E030E040E050E8B9019F
:1007F000CA012C96E2E00C94091ADF92EF92FF9264
:100800000F931F93FC01E480F58006811781D1804E
:100810008081823048F480E090E0A0E1B0E0E82AF6
:10082000F92A0A2B1B2BA5C0843009F49FC0823003
:1008300021F4EE24FF24870105C0E114F104010531
:10084000110519F4E0E0F0E096C0628173819FEF3A
:10085000623879070CF05BC022E83FEF261B370BAC
:100860002A3131052CF020E030E040E050E02AC091
:10087000B801A701022E04C0769567955795479554
:100880000A94D2F781E090E0A0E0B0E004C0880FC5
:10089000991FAA1FBB1F2A95D2F70197A109B10979
:1008A0008E219F21A023B1230097A105B10521F03E
:1008B00081E090E0A0E0B0E09A01AB01282B392B59
:1008C0004A2B5B2BDA01C9018F779070A070B07052
:1008D00080349105A105B10539F427FF09C0205CDA
:1008E0003F4F4F4F5F4F04C0215C3F4F4F4F5F4F13
:1008F000E0E0F0E02030A0E03A07A0E04A07A0E402
:100900005A0710F0E1E0F0E079018A0127C0603871
:10091000710564F5FB01E158FF4FD801C7018F77DE
:100920009070A070B07080349105A105B10539F4C4
:10093000E7FE0DC080E490E0A0E0B0E004C08FE3EB
:1009400090E0A0E0B0E0E80EF91E0A1F1B1F17FFA1
:1009500005C016950795F794E794319687E01695AC
:100960000795F794E7948A95D1F705C0EE24FF2404
:100970008701EFEFF0E06E2F679566276795902F60
:100980009F77D794DD24D7948E2F8695492F462BB9
:10099000582F5D29B701CA011F910F91FF90EF9069
:1009A000DF900895FC01DB01408151812281622F9B
:1009B0006F7770E0221F2227221F9381892F880FD3
:1009C000822B282F30E0991F9927991F11969C930D
:1009D000119721153105A9F54115510561057105DD
:1009E00011F482E037C082E89FEF13969C938E93B8
:1009F00012979A01AB0167E0220F331F441F551F66
:100A00006A95D1F783E08C930DC0220F331F441FEA
:100A1000551F12968D919C911397019713969C9355
:100A20008E931297203080E0380780E0480780E4FA
:100A3000580758F314962D933D934D935C93179755
:100A400008952F3F310579F4411551056105710570
:100A500019F484E08C93089564FF03C081E08C93C3
:100A600012C01C9210C02F57304013963C932E9307
:100A7000129783E08C9387E0440F551F661F771F02
:100A80008A95D1F7706414964D935D936D937C9322
:100A9000179708951F93DC01FB019C91923008F495
:100AA00047C08081823008F443C0943051F41196DD
:100AB0001C91843099F58181682F70E0611B710968
:100AC0003FC0843021F0923031F48230B9F181811D
:100AD000882389F12DC011961C9111978230F1F075
:100AE00081811817D9F412962D913C911397828128
:100AF00093818217930794F028173907BCF0149656
:100B00008D919D910D90BC91A02D248135814681C0
:100B10005781281739074A075B0718F4112341F05A
:100B20000AC082179307A407B50740F4112319F0F0
:100B300061E070E005C06FEF7FEF02C060E070E041
:100B4000CB011F910895DF93CF9300D000D00F9277
:100B5000CDB7DEB789836A834B838A81883008F0FA
:100B6000D5C08981843008F0D1C08981282F30E038
:100B70003D832C838C819D818130910509F443C094
:100B80002C813D81223031052CF48C819D81009790
:100B900071F0BCC02C813D812230310509F45FC069
:100BA0008C819D818330910509F485C0AFC08B8114
:100BB0008130A1F4AAE3B0E0EAE3F0E08081482FBD
:100BC0008A81282F30E081E090E0022E02C0880F59
:100BD000991F0A94E2F7842B8C9398C0AAE3B0E0A3
:100BE000EAE3F0E08081482F8A81282F30E081E01D
:100BF00090E0022E02C0880F991F0A94E2F78095B8
:100C000084238C9383C08B818130A1F4A7E3B0E06F
:100C1000E7E3F0E08081482F8A81282F30E081E0EF
:100C200090E0022E02C0880F991F0A94E2F7842BED
:100C30008C936CC0A7E3B0E0E7E3F0E08081482F3D
:100C40008A81282F30E081E090E0022E02C0880FD8
:100C5000991F0A94E2F7809584238C9357C08B8167
:100C60008130A1F4A4E3B0E0E4E3F0E08081482F18
:100C70008A81282F30E081E090E0022E02C0880FA8
:100C8000991F0A94E2F7842B8C9340C0A4E3B0E050
:100C9000E4E3F0E08081482F8A81282F30E081E072
:100CA00090E0022E02C0880F991F0A94E2F7809507
:100CB00084238C932BC08B818130A1F4A1E3B0E01D
:100CC000E1E3F0E08081482F8A81282F30E081E045
:100CD00090E0022E02C0880F991F0A94E2F7842B3D
:100CE0008C9314C0A1E3B0E0E1E3F0E08081482FF1
:100CF0008A81282F30E081E090E0022E02C0880F28
:100D0000991F0A94E2F7809584238C930F900F909B
:100D10000F900F900F90CF91DF910895DF93CF93B5
:100D200000D000D00F92CDB7DEB789836A834B83A2
:100D30008A81883008F0D5C08981843008F0D1C01C
:100D40008981282F30E03D832C838C819D818130E7
:100D5000910509F443C02C813D81223031052CF4EA
:100D60008C819D81009771F0BCC02C813D81223027
:100D7000310509F45FC08C819D818330910509F4B0
:100D800085C0AFC08B818130A1F4ABE3B0E0EBE371
:100D9000F0E08081482F8A81282F30E081E090E0C8
:100DA000022E02C0880F991F0A94E2F7842B8C93BD
:100DB00098C0ABE3B0E0EBE3F0E08081482F8A819C
:100DC000282F30E081E090E0022E02C0880F991FAA
:100DD0000A94E2F7809584238C9383C08B818130C1
:100DE000A1F4A8E3B0E0E8E3F0E08081482F8A8135
:100DF000282F30E081E090E0022E02C0880F991F7A
:100E00000A94E2F7842B8C936CC0A8E3B0E0E8E38B
:100E1000F0E08081482F8A81282F30E081E090E047
:100E2000022E02C0880F991F0A94E2F7809584234E
:100E30008C9357C08B818130A1F4A5E3B0E0E5E34A
:100E4000F0E08081482F8A81282F30E081E090E017
:100E5000022E02C0880F991F0A94E2F7842B8C930C
:100E600040C0A5E3B0E0E5E3F0E08081482F8A814F
:100E7000282F30E081E090E0022E02C0880F991FF9
:100E80000A94E2F7809584238C932BC08B81813068
:100E9000A1F4A2E3B0E0E2E3F0E08081482F8A8190
:100EA000282F30E081E090E0022E02C0880F991FC9
:100EB0000A94E2F7842B8C9314C0A2E3B0E0E2E33F
:100EC000F0E08081482F8A81282F30E081E090E097
:100ED000022E02C0880F991F0A94E2F7809584239E
:100EE0008C930F900F900F900F900F90CF91DF91F8
:100EF0000895DF93CF9300D000D00F92CDB7DEB727
:100F00008A836B8319828B81883008F084C08A8140
:100F1000843008F080C08A81282F30E03D832C8304
:100F20004C815D814130510579F18C819D81823008
:100F3000910534F42C813D812115310569F06BC098
:100F40004C815D8142305105B9F18C819D818330A6
:100F5000910509F449C05FC0E9E3F0E08081282FE2
:100F600030E08B81882F90E0A90102C0559547950C
:100F70008A95E2F7CA0181709070882319F081E0A8
:100F8000898349C0198247C0E6E3F0E08081282FB9
:100F900030E08B81882F90E0A90102C055954795DC
:100FA0008A95E2F7CA0181709070882319F081E078
:100FB000898331C019822FC0E3E3F0E08081282FBC
:100FC00030E08B81882F90E0A90102C055954795AC
:100FD0008A95E2F7CA0181709070882319F081E048
:100FE000898319C0198217C0E0E3F0E08081282FBF
:100FF00030E08B81882F90E0A90102C0559547957C
:101000008A95E2F7CA0181709070882319F081E017
:10101000898301C0198289810F900F900F900F90E2
:101020000F90CF91DF910895DF93CF9300D000D040
:10103000CDB7DEB789836A838981843090F5898151
:10104000282F30E03C832B838B819C81813091055C
:10105000D1F02B813C81223031052CF48B819C8195
:10106000009761F01EC02B813C812230310581F058
:101070008B819C818330910581F013C0EAE3F0E01D
:101080008A8180830EC0E7E3F0E08A81808309C013
:10109000E4E3F0E08A81808304C0E1E3F0E08A8148
:1010A00080830F900F900F900F90CF91DF91089554
:1010B000DF93CF9300D000D0CDB7DEB789836A83AA
:1010C0008981843090F58981282F30E03C832B83FF
:1010D0008B819C8181309105D1F02B813C81223024
:1010E00031052CF48B819C81009761F01EC02B810F
:1010F0003C812230310581F08B819C8183309105C8
:1011000081F013C0EBE3F0E08A8180830EC0E8E356
:10111000F0E08A81808309C0E5E3F0E08A81808382
:1011200004C0E2E3F0E08A8180830F900F900F907B
:101130000F90CF91DF910895DF93CF9300D000D02F
:10114000CDB7DEB78A8319828A81843090F58A818F
:10115000282F30E03C832B838B819C81813091054B
:10116000D1F02B813C81223031052CF48B819C8184
:10117000009761F01EC02B813C812230310581F047
:101180008B819C818330910581F013C0E9E3F0E00D
:10119000808189830EC0E6E3F0E08081898309C005
:1011A000E3E3F0E08081898304C0E0E3F0E0808144
:1011B000898389810F900F900F900F90CF91DF91CD
:1011C0000895DF93CF93CDB7DEB78EE991E00E940B
:1011D00073170E946917809196018130E1F7109290
:1011E000960180E690E00E94C2168091980190914D
:1011F00099018F309105C8F30E94691780E790E04C
:101200000E94C216809196018130E1F710929601FA
:1012100010929901109298010E9469178CE790E052
:101220000E94C21610929901109298018091980123
:10123000909199018F309105C8F30E9469170E941F
:10124000D8171092990110929801CF91DF910895CB
:10125000DF93CF93CDB7DEB780919801909199013C
:1012600001969093990180939801CF91DF91089511
:10127000DF93CF93CDB7DEB78EE991E00E9473176D
:1012800010929901109298010E94691726C08CE86B
:1012900090E00E94C216809198019091990183304C
:1012A0009105C8F310929901109298010E94691754
:1012B00080919801909199010097D1F31092990132
:1012C0001092980180919601813039F480919701B4
:1012D000833719F41092960104C0809196018130F1
:1012E000B1F6CF91DF9108950F931F93DF93CF93C2
:1012F000CDB7DEB7A6970FB6F894DEBF0FBECDBF51
:101300001E8E1D8E0E94691789E990E00E94C21608
:1013100081E060E00E94EB161E8E93C08E8D082F38
:1013200010E00E943811282FCE014F96FC01E00FEB
:10133000F11F20838AE20E94D3148E8D282F30E083
:10134000CE014F96FC01E20FF31F80810E94E71847
:101350008E8D843008F072C080E090E0A8E4B3E4A1
:10136000898F9A8FAB8FBC8F698D7A8D8B8D9C8D79
:1013700020E030E04AEF54E40E941F02DC01CB0180
:101380008D8B9E8BAF8BB88F6D897E898F89988D61
:1013900020E030E040E85FE30E94790388232CF4EA
:1013A00081E090E09C8B8B8B3FC06D897E898F891B
:1013B000988D20E03FEF4FE757E40E94190318167D
:1013C0004CF5698D7A8D8B8D9C8D20E030E040E26C
:1013D00051E40E941F02DC01CB01BC01CD010E943F
:1013E0004900DC01CB019C8B8B8B0FC088EC90E01B
:1013F0009A8B898B89899A890197F1F79A8B898BC6
:101400008B899C8901979C8B8B8B8B899C890097FE
:1014100069F714C06D897E898F89988D0E94490073
:10142000DC01CB019C8B8B8B8B899C89988B8F8764
:101430008F8598890197F1F7988B8F878E8D8F5FB5
:101440008E8F8E8D853008F469CF80919601813022
:10145000E1F71092960180919701282F30E03EA38A
:101460002DA38DA19EA18336910531F02DA13EA122
:101470002737310551F0ADC00E94691789EA90E025
:101480000E94C21631E03CA3A5C080919601813034
:10149000E1F710929601809197018D8F0E94691754
:1014A0008AEB90E00E94C21681E060E00E94EB1699
:1014B0008AEC90E00E94C2168D8D282F30E083E0E8
:1014C00090E0821B930B0E94461780ED90E00E94F3
:1014D000C21680E090E0AAEFB3E48B879C87AD87CB
:1014E000BE876B857C858D859E8520E030E04AEF48
:1014F00054E40E941F02DC01CB018F839887A987E7
:10150000BA876F81788589859A8520E030E040E848
:101510005FE30E94790388232CF481E090E09E83AE
:101520008D833FC06F81788589859A8520E03FEF64
:101530004FE757E40E94190318164CF56B857C851C
:101540008D859E8520E030E040E251E40E941F023C
:10155000DC01CB01BC01CD010E944900DC01CB01C3
:101560009E838D830FC088EC90E09C838B838B815E
:101570009C810197F1F79C838B838D819E810197DC
:101580009E838D838D819E81009769F714C06F8142
:10159000788589859A850E944900DC01CB019E836C
:1015A0008D838D819E819A83898389819A81019718
:1015B000F1F79A83898380919601813041F480917B
:1015C0009701813621F4109296010E9438091CA2DD
:1015D00001C01CA28CA1A6960FB6F894DEBF0FBE68
:1015E000CDBFCF91DF911F910F9108950F931F935E
:1015F000DF93CF93CDB7DEB7CA55D0400FB6F8947E
:10160000DEBF0FBECDBFFE01EB5AFF4F10820E941E
:10161000691789ED90E00E94C21681E060E00E94A7
:10162000EB168EE00E94E412FE01EB5AFF4F10828F
:10163000CFC0FE01EB5AFF4F8081082F10E00E94BF
:101640003811282FCE018A5A9F4FFC01E00FF11F5D
:1016500020838AE20E94D314FE01EF5AFF4F80E0FC
:1016600090E0A8E4B3E480839183A283B3838E01E6
:10167000035B1F4FFE01EF5AFF4F60817181828132
:10168000938120E030E04AEF54E40E941F02DC0125
:10169000CB01F80180839183A283B383FE01E35BD6
:1016A000FF4F608171818281938120E030E040E8CA
:1016B0005FE30E947903882344F4FE01E55BFF4F5A
:1016C00081E090E09183808364C0FE01E35BFF4F83
:1016D000608171818281938120E03FEF4FE757E481
:1016E0000E94190318160CF043C0FE01EF5AFF4F79
:1016F000608171818281938120E030E040E251E499
:101700000E941F02DC01CB018E01055B1F4FBC0153
:10171000CD010E944900DC01CB01F8019183808357
:101720001FC0FE01E75BFF4F88EC90E09183808350
:10173000FE01E75BFF4F808191810197F1F7FE0188
:10174000E75BFF4F91838083DE01A55BBF4FFE0106
:10175000E55BFF4F80819181019711969C938E9359
:10176000FE01E55BFF4F808191810097D1F627C094
:101770008E01055B1F4FFE01E35BFF4F60817181AE
:10178000828193810E944900DC01CB01F8019183A1
:101790008083DE01A95BBF4FFE01E55BFF4F8081C7
:1017A00091818D939C93FE01E95BFF4F8081918134
:1017B0000197F1F7FE01E95BFF4F91838083DE0122
:1017C000AB5ABF4FFE01EB5AFF4F80818F5F8C9366
:1017D000FE01EB5AFF4F8081853008F42ACFFE01CD
:1017E000EB5AFF4F10829DC0FE01EB5AFF4F8081E4
:1017F000282F30E0CE018A5A9F4FFC01E20FF31FE1
:1018000080810E94E718FE01ED5BFF4F80E090E0D1
:10181000A0EAB0E480839183A283B3838E01015C4C
:101820001F4FFE01ED5BFF4F6081718182819381CB
:1018300020E030E04AEF54E40E941F02DC01CB01BB
:10184000F80180839183A283B383FE01FF966081B8
:1018500071818281938120E030E040E85FE30E9463
:10186000790388232CF481E090E09EAF8DAF46C0D1
:10187000FE01FF96608171818281938120E03FEFBC
:101880004FE757E40E941903181664F5FE01ED5B5B
:10189000FF4F608171818281938120E030E040E2DE
:1018A00051E40E941F02DC01CB01BC01CD010E946A
:1018B0004900DC01CB019EAF8DAF0FC088EC90E0FA
:1018C0009CAF8BAF8BAD9CAD0197F1F79CAF8BAF0D
:1018D0008DAD9EAD01979EAF8DAF8DAD9EAD009746
:1018E00069F716C0FE01FF96608171818281938144
:1018F0000E944900DC01CB019EAF8DAF8DAD9EAD46
:101900009AAF89AF89AD9AAD0197F1F79AAF89AFD8
:10191000DE01AB5ABF4FFE01EB5AFF4F80818F5F54
:101920008C93FE01EB5AFF4F8081853008F45CCF29
:101930000E9469178AEE90E00E94C21681E060E082
:101940000E94EB168EE00E94E412FE01EB5AFF4F5C
:10195000108295C0FE01EB5AFF4F8081082F10E0E6
:101960000E943811282FCE018A5A9F4FFC01E00FA8
:10197000F11F20838AE20E94D314FE01EB5AFF4F2D
:101980008081843008F072C080E090E0A8E4B3E485
:101990008DAB9EABAFABB8AF6DA97EA98FA998AD4B
:1019A00020E030E04AEF54E40E941F02DC01CB014A
:1019B00089AB9AABABABBCAB69A97AA98BA99CA943
:1019C00020E030E040E85FE30E94790388232CF4B4
:1019D00081E090E098AB8FA73FC069A97AA98BA955
:1019E0009CA920E03FEF4FE757E40E941903181627
:1019F0004CF56DA97EA98FA998AD20E030E040E2BA
:101A000051E40E941F02DC01CB01BC01CD010E9408
:101A10004900DC01CB0198AB8FA70FC088EC90E0A8
:101A20009EA78DA78DA59EA50197F1F79EA78DA7CF
:101A30008FA598A9019798AB8FA78FA598A9009714
:101A400069F714C069A97AA98BA99CA90E944900C9
:101A5000DC01CB0198AB8FA78FA598A99CA78BA77A
:101A60008BA59CA50197F1F79CA78BA7DE01AB5A2C
:101A7000BF4FFE01EB5AFF4F80818F5F8C93FE01B9
:101A8000EB5AFF4F8081853008F464CFFE01EB5A9A
:101A9000FF4F10828AC0FE01EB5AFF4F8081282F32
:101AA00030E0CE018A5A9F4FFC01E20FF31F808184
:101AB0000E94E71880E090E0A0EAB0E48FA398A726
:101AC000A9A7BAA76FA178A589A59AA520E030E0BB
:101AD0004AEF54E40E941F02DC01CB018BA39CA3BC
:101AE000ADA3BEA36BA17CA18DA19EA120E030E09F
:101AF00040E85FE30E94790388232CF481E090E0C2
:101B00009AA389A33FC06BA17CA18DA19EA120E0D7
:101B10003FEF4FE757E40E94190318164CF56FA1E9
:101B200078A589A59AA520E030E040E251E40E9422
:101B30001F02DC01CB01BC01CD010E944900DC0188
:101B4000CB019AA389A30FC088EC90E098A38F8F54
:101B50008F8D98A10197F1F798A38F8F89A19AA1F2
:101B600001979AA389A389A19AA1009769F714C044
:101B70006BA17CA18DA19EA10E944900DC01CB013B
:101B80009AA389A389A19AA19E8F8D8F8D8D9E8DF9
:101B90000197F1F79E8F8D8FDE01AB5ABF4FFE018B
:101BA000EB5AFF4F80818F5F8C93FE01EB5AFF4F02
:101BB0008081853008F46FCF809196018130E1F704
:101BC0001092960180919701863209F084C00E949C
:101BD00069178CEF90E00E94C21681E060E00E94DD
:101BE000EB1689E091E00E94C2168CE00E94E4129C
:101BF00080E090E0AAE7B4E4898F9A8FAB8FBC8F26
:101C0000698D7A8D8B8D9C8D20E030E04AEF54E415
:101C10000E941F02DC01CB018D8B9E8BAF8BB88F96
:101C20006D897E898F89988D20E030E040E85FE300
:101C30000E94790388232CF481E090E09C8B8B8BAD
:101C40003FC06D897E898F89988D20E03FEF4FE7F7
:101C500057E40E94190318164CF5698D7A8D8B8D07
:101C60009C8D20E030E040E251E40E941F02DC0144
:101C7000CB01BC01CD010E944900DC01CB019C8B52
:101C80008B8B0FC088EC90E09A8B898B89899A891D
:101C90000197F1F79A8B898B8B899C8901979C8B93
:101CA0008B8B8B899C89009769F79BC06D897E8996
:101CB0008F89988D0E944900DC01CB019C8B8B8B16
:101CC0008B899C89988B8F878F8598890197F1F7ED
:101CD000988B8F8786C080919701853209F097CCC9
:101CE0000E94691786E191E00E94C21681E060E0DF
:101CF0000E94EB1682E291E00E94C21680E090E022
:101D0000AAE7B4E48B879C87AD87BE876B857C850B
:101D10008D859E8520E030E04AEF54E40E941F024A
:101D2000DC01CB018F839887A987BA876F8178857B
:101D300089859A8520E030E040E85FE30E947903DE
:101D400088232CF481E090E09E838D833FC06F81D7
:101D5000788589859A8520E03FEF4FE757E40E9418
:101D6000190318164CF56B857C858D859E8520E0C2
:101D700030E040E251E40E941F02DC01CB01BC01D3
:101D8000CD010E944900DC01CB019E838D830FC0F1
:101D900088EC90E09C838B838B819C810197F1F789
:101DA0009C838B838D819E8101979E838D838D8102
:101DB0009E81009769F72BCC6F81788589859A85FC
:101DC0000E944900DC01CB019E838D838D819E8121
:101DD0009A83898389819A810197F1F79A8389830C
:101DE00016CCC65ADF4F0FB6F894DEBF0FBECDBF7C
:101DF000CF91DF911F910F910895DF93CF93CDB7CE
:101E0000DEB781E391E00E94C21680919601813095
:101E1000E1F780919701813239F40E94691781E4DA
:101E200091E00E94C216FFCF0E9469178FE491E0F3
:101E30000E94C21681E060E00E94EB168EE591E000
:101E40000E94C216CF91DF910895DF93CF930F9236
:101E5000CDB7DEB7898381E0809396018981809335
:101E600097010F90CF91DF910895DF93CF93CDB776
:101E7000DEB765970FB6F894DEBF0FBECDBFAFE5F6
:101E8000B0E0EFE5F0E0808180688C930E9448121A
:101E900080E895E2A0E0B0E08A8B9B8BAC8BBD8B99
:101EA000188A198A83E08F8785E29FE00E9479195A
:101EB000CE010F960E945E1880E090E0AAEFB3E496
:101EC0008B879C87AD87BE876B857C858D859E853E
:101ED00020E030E04AEF54E40E941F02DC01CB0115
:101EE0008F839887A987BA876F81788589859A8536
:101EF00020E030E040E85FE30E94790388232CF47F
:101F000081E090E09E838D833FC06F8178858985D5
:101F10009A8520E03FEF4FE757E40E941903181617
:101F20004CF56B857C858D859E8520E030E040E218
:101F300051E40E941F02DC01CB01BC01CD010E94D3
:101F40004900DC01CB019E838D830FC088EC90E0BB
:101F50009C838B838B819C810197F1F79C838B837E
:101F60008D819E8101979E838D838D819E810097B7
:101F700069F714C06F81788589859A850E94490028
:101F8000DC01CB019E838D838D819E819A83898321
:101F900089819A810197F1F79A83898380E40E946D
:101FA000E71881E08093A30110929F0110929E0197
:101FB00082E19AE79093A1018093A00184E080934D
:101FC000A20188E299E00E94E61765960FB6F894A0
:101FD000DEBF0FBECDBFCF91DF910895DF93CF93CA
:101FE000CDB7DEB76F970FB6F894DEBF0FBECDBF8B
:101FF0001D8E0E94350F0E94FD0E8091960181304A
:10200000E1F71092960180919701882F90E0843239
:10201000910509F084C00E94691783E691E00E944F
:10202000C21681E060E00E94EB1682E291E00E941D
:10203000C21680E090E0AAEFB3E4898F9A8FAB8F4D
:10204000BC8F698D7A8D8B8D9C8D20E030E04AEFBE
:1020500054E40E941F02DC01CB018D8B9E8BAF8B61
:10206000B88F6D897E898F89988D20E030E040E8B7
:102070005FE30E94790388232CF481E090E09C8B3D
:102080008B8B3FC06D897E898F89988D20E03FEFD3
:102090004FE757E40E94190318164CF5698D7A8DA5
:1020A0008B8D9C8D20E030E040E251E40E941F02C5
:1020B000DC01CB01BC01CD010E944900DC01CB0158
:1020C0009C8B8B8B0FC088EC90E09A8B898B8989D5
:1020D0009A890197F1F79A8B898B8B899C89019753
:1020E0009C8B8B8B8B899C89009769F714C06D89B9
:1020F0007E898F89988D0E944900DC01CB019C8BE1
:102100008B8B8B899C89988B8F878F85988901977A
:10211000F1F7988B8F870E9469170E94F60A0E9438
:1021200069178FE691E00E94C21681E060E00E948C
:10213000EB168DE791E00E94C2160E9438118D8F38
:1021400080E090E0A8E4B3E48B879C87AD87BE87EE
:102150006B857C858D859E8520E030E04AEF54E4D8
:102160000E941F02DC01CB018F839887A987BA8761
:102170006F81788589859A8520E030E040E85FE3CB
:102180000E94790388232CF481E090E09E838D8364
:102190003FC06F81788589859A8520E03FEF4FE7C2
:1021A00057E40E94190318164CF56B857C858D85C4
:1021B0009E8520E030E040E251E40E941F02DC01F5
:1021C000CB01BC01CD010E944900DC01CB019E8303
:1021D0008D830FC088EC90E09C838B838B819C81E6
:1021E0000197F1F79C838B838D819E8101979E835C
:1021F0008D838D819E81009769F714C06F817885EA
:1022000089859A850E944900DC01CB019E838D83DC
:102210008D819E819A83898389819A810197F1F7C3
:102220009A8389838D8D282F30E03F8F2E8F8E8D5E
:102230009F8D8B32910531F02E8D3F8D2D323105E2
:1022400061F06DCF8AE20E94E7180E94740988232A
:1022500009F465CF0E94E10862CF88E20E94E71886
:102260000E947409882309F45ACF0E94F60A57CFB6
:10227000DF93CF9300D0CDB7DEB781E060E040E0E0
:102280000E94A30581E061E040E00E94A30581E097
:1022900062E040E00E94A30581E063E040E00E942C
:1022A000A30581E064E040E00E94A30581E065E0D1
:1022B00040E00E94A30581E066E040E00E94A305A3
:1022C00081E067E040E00E94A305198235C081E00B
:1022D000698141E00E94A30581E0698140E00E949C
:1022E0008E061A821EC08A81982F9C5F81E0692F1A
:1022F0000E947907882391F48981882F90E0880FC4
:10230000991F880F991F982F8A81890F8F5F0E94CC
:10231000A0110F900F90CF91DF9108958A818F5F68
:102320008A838A818430F8F281E0698140E00E94EA
:10233000A30589818F5F89838981843040F2C5CF6D
:10234000DF93CF9300D000D0CDB7DEB78A83198258
:102350008A81282F30E03C832B838B819C818830BD
:10236000910509F470C02B813C81293031055CF561
:102370008B819C818430910509F459C02B813C816B
:10238000253031059CF48B819C818230910509F4C4
:1023900048C02B813C81233031050CF045C08B8136
:1023A0009C818130910509F439C068C02B813C8142
:1023B0002630310509F441C08B819C81873091051D
:1023C0000CF03EC037C02B813C812C30310509F424
:1023D00046C08B819C818D3091055CF42B813C81C2
:1023E0002A303105B1F18B819C818B309105A4F5A8
:1023F0002DC02B813C812E303105B9F18B819C8120
:102400008E3091057CF12B813C812F30310581F19B
:102410008B819C818031910571F130C087E3898384
:102420002FC088E389832CC089E3898329C085E292
:10243000898326C084E3898323C085E3898320C000
:1024400086E389831DC08AE289831AC081E3898378
:1024500017C082E3898314C083E3898311C08DE2AE
:1024600089830EC08DE089830BC080E3898308C017
:102470008DE3898305C08BE2898302C08A818983C9
:1024800089810F900F900F900F90CF91DF91089559
:10249000DF93CF93CDB7DEB72E970FB6F894DEBF9C
:1024A0000FBECDBF83E063E041E00E94A30583E05F
:1024B00062E041E00E94A30580E090E0A0EAB1E480
:1024C0008B879C87AD87BE876B857C858D859E8538
:1024D00020E030E04AEF54E40E941F02DC01CB010F
:1024E0008F839887A987BA876F81788589859A8530
:1024F00020E030E040E85FE30E94790388232CF479
:1025000081E090E09E838D833FC06F8178858985CF
:102510009A8520E03FEF4FE757E40E941903181611
:102520004CF56B857C858D859E8520E030E040E212
:1025300051E40E941F02DC01CB01BC01CD010E94CD
:102540004900DC01CB019E838D830FC088EC90E0B5
:102550009C838B838B819C810197F1F79C838B8378
:102560008D819E8101979E838D838D819E810097B1
:1025700069F714C06F81788589859A850E94490022
:10258000DC01CB019E838D838D819E819A8389831B
:1025900089819A810197F1F79A83898382E06FEFAD
:1025A0000E94140888E30E94E4128CE00E94E41266
:1025B00081E00E94E4122E960FB6F894DEBF0FBEA3
:1025C000CDBFCF91DF910895DF93CF93CDB7DEB725
:1025D000E9970FB6F894DEBF0FBECDBF89AF83E099
:1025E00063E040E00E948E0680E090E0A0E8BFE358
:1025F0008DAB9EABAFABB8AF6DA97EA98FA998ADDF
:1026000020E030E04AEF54E40E941F02DC01CB01DD
:1026100089AB9AABABABBCAB69A97AA98BA99CA9D6
:1026200020E030E040E85FE30E94790388232CF447
:1026300081E090E098AB8FA73FC069A97AA98BA9E8
:102640009CA920E03FEF4FE757E40E9419031816BA
:102650004CF56DA97EA98FA998AD20E030E040E24D
:1026600051E40E941F02DC01CB01BC01CD010E949C
:102670004900DC01CB0198AB8FA70FC088EC90E03C
:102680009EA78DA78DA59EA50197F1F79EA78DA763
:102690008FA598A9019798AB8FA78FA598A90097A8
:1026A00069F714C069A97AA98BA99CA90E9449005D
:1026B000DC01CB0198AB8FA78FA598A99CA78BA70E
:1026C0008BA59CA50197F1F79CA78BA783E062E0FF
:1026D00041E00E948E0680E090E0A0E8BFE38FA377
:1026E00098A7A9A7BAA76FA178A589A59AA520E060
:1026F00030E04AEF54E40E941F02DC01CB018BA3BF
:102700009CA3ADA3BEA36BA17CA18DA19EA120E043
:1027100030E040E85FE30E94790388232CF481E0F5
:1027200090E09AA389A33FC06BA17CA18DA19EA13B
:1027300020E03FEF4FE757E40E94190318164CF5CD
:102740006FA178A589A59AA520E030E040E251E488
:102750000E941F02DC01CB01BC01CD010E94490097
:10276000DC01CB019AA389A30FC088EC90E098A369
:102770008F8F8F8D98A10197F1F798A38F8F89A1E3
:102780009AA101979AA389A389A19AA1009769F7B1
:1027900014C06BA17CA18DA19EA10E944900DC0107
:1027A000CB019AA389A389A19AA19E8F8D8F8D8D2C
:1027B0009E8D0197F1F79E8F8D8F82E069AD0E940B
:1027C000580880E090E0A0E8BFE3898F9A8FAB8F34
:1027D000BC8F698D7A8D8B8D9C8D20E030E04AEF27
:1027E00054E40E941F02DC01CB018D8B9E8BAF8BCA
:1027F000B88F6D897E898F89988D20E030E040E820
:102800005FE30E94790388232CF481E090E09C8BA5
:102810008B8B3FC06D897E898F89988D20E03FEF3B
:102820004FE757E40E94190318164CF5698D7A8D0D
:102830008B8D9C8D20E030E040E251E40E941F022D
:10284000DC01CB01BC01CD010E944900DC01CB01C0
:102850009C8B8B8B0FC088EC90E09A8B898B89893D
:102860009A890197F1F79A8B898B8B899C890197BB
:102870009C8B8B8B8B899C89009769F714C06D8921
:102880007E898F89988D0E944900DC01CB019C8B49
:102890008B8B8B899C89988B8F878F8598890197E3
:1028A000F1F7988B8F8783E062E040E00E948E060C
:1028B00080E090E0A0E8BFE38B879C87AD87BE8770
:1028C0006B857C858D859E8520E030E04AEF54E461
:1028D0000E941F02DC01CB018F839887A987BA87EA
:1028E0006F81788589859A8520E030E040E85FE354
:1028F0000E94790388232CF481E090E09E838D83ED
:102900003FC06F81788589859A8520E03FEF4FE74A
:1029100057E40E94190318164CF56B857C858D854C
:102920009E8520E030E040E251E40E941F02DC017D
:10293000CB01BC01CD010E944900DC01CB019E838B
:102940008D830FC088EC90E09C838B838B819C816E
:102950000197F1F79C838B838D819E8101979E83E4
:102960008D838D819E81009769F714C06F81788572
:1029700089859A850E944900DC01CB019E838D8365
:102980008D819E819A83898389819A810197F1F74C
:102990009A838983E9960FB6F894DEBF0FBECDBF48
:1029A000CF91DF910895DF93CF93CDB7DEB7E9974D
:1029B0000FB6F894DEBF0FBECDBF89AF83E063E0F2
:1029C00041E00E948E0680E090E0A0E8BFE38DAB7E
:1029D0009EABAFABB8AF6DA97EA98FA998AD20E033
:1029E00030E04AEF54E40E941F02DC01CB0189ABC6
:1029F0009AABABABBCAB69A97AA98BA99CA920E027
:102A000030E040E85FE30E94790388232CF481E002
:102A100090E098AB8FA73FC069A97AA98BA99CA920
:102A200020E03FEF4FE757E40E94190318164CF5DA
:102A30006DA97EA98FA998AD20E030E040E251E475
:102A40000E941F02DC01CB01BC01CD010E944900A4
:102A5000DC01CB0198AB8FA70FC088EC90E09EA75C
:102A60008DA78DA59EA50197F1F79EA78DA78FA590
:102A700098A9019798AB8FA78FA598A9009769F798
:102A800014C069A97AA98BA99CA90E944900DC01FC
:102A9000CB0198AB8FA78FA598A99CA78BA78BA5D7
:102AA0009CA50197F1F79CA78BA783E062E041E02A
:102AB0000E948E0680E090E0A0E8BFE38FA398A775
:102AC000A9A7BAA76FA178A589A59AA520E030E0AB
:102AD0004AEF54E40E941F02DC01CB018BA39CA3AC
:102AE000ADA3BEA36BA17CA18DA19EA120E030E08F
:102AF00040E85FE30E94790388232CF481E090E0B2
:102B00009AA389A33FC06BA17CA18DA19EA120E0C7
:102B10003FEF4FE757E40E94190318164CF56FA1D9
:102B200078A589A59AA520E030E040E251E40E9412
:102B30001F02DC01CB01BC01CD010E944900DC0178
:102B4000CB019AA389A30FC088EC90E098A38F8F44
:102B50008F8D98A10197F1F798A38F8F89A19AA1E2
:102B600001979AA389A389A19AA1009769F714C034
:102B70006BA17CA18DA19EA10E944900DC01CB012B
:102B80009AA389A389A19AA19E8F8D8F8D8D9E8DE9
:102B90000197F1F79E8F8D8F82E069AD0E945808F2
:102BA00080E090E0A0E8BFE3898F9A8FAB8FBC8F65
:102BB000698D7A8D8B8D9C8D20E030E04AEF54E456
:102BC0000E941F02DC01CB018D8B9E8BAF8BB88FD7
:102BD0006D897E898F89988D20E030E040E85FE341
:102BE0000E94790388232CF481E090E09C8B8B8BEE
:102BF0003FC06D897E898F89988D20E03FEF4FE738
:102C000057E40E94190318164CF5698D7A8D8B8D47
:102C10009C8D20E030E040E251E40E941F02DC0184
:102C2000CB01BC01CD010E944900DC01CB019C8B92
:102C30008B8B0FC088EC90E09A8B898B89899A895D
:102C40000197F1F79A8B898B8B899C8901979C8BD3
:102C50008B8B8B899C89009769F714C06D897E895D
:102C60008F89988D0E944900DC01CB019C8B8B8B56
:102C70008B899C89988B8F878F8598890197F1F72D
:102C8000988B8F8783E062E040E00E948E0680E0B0
:102C900090E0A0E8BFE38B879C87AD87BE876B85FC
:102CA0007C858D859E8520E030E04AEF54E40E94CB
:102CB0001F02DC01CB018F839887A987BA876F81B8
:102CC000788589859A8520E030E040E85FE30E94BE
:102CD000790388232CF481E090E09E838D833FC0AC
:102CE0006F81788589859A8520E03FEF4FE757E42B
:102CF0000E94190318164CF56B857C858D859E8581
:102D000020E030E040E251E40E941F02DC01CB01F0
:102D1000BC01CD010E944900DC01CB019E838D8363
:102D20000FC088EC90E09C838B838B819C81019702
:102D3000F1F79C838B838D819E8101979E838D8388
:102D40008D819E81009769F714C06F817885898590
:102D50009A850E944900DC01CB019E838D838D8181
:102D60009E819A83898389819A810197F1F79A8359
:102D70008983E9960FB6F894DEBF0FBECDBFCF9121
:102D8000DF910895DF93CF9300D00F92CDB7DEB7D8
:102D90009B838A8319820EC08981282F30E08A8123
:102DA0009B81FC01E20FF31F80810E94D314898173
:102DB0008F5F89838981282F30E08A819B81FC0184
:102DC000E20FF31F8081882339F70F900F900F9047
:102DD000CF91DF910895DF93CF9300D000D00F9271
:102DE000CDB7DEB78A836B838A81282F30E03D839D
:102DF0002C838C819D8181309105C1F02C813D8196
:102E0000223031052CF48C819D81009761F019C02E
:102E10002C813D812230310569F08C819D81833088
:102E2000910561F00EC08B8189830BC08B81805C22
:102E3000898307C08B81805F898303C08B81805B1E
:102E40008983898180680E94E4120F900F900F900F
:102E50000F900F90CF91DF910895DF93CF9300D023
:102E600000D0CDB7DEB789836A835C834B838981C9
:102E70006A810E94EB168B819C810E94C2160F9082
:102E80000F900F900F90CF91DF910895DF93CF9324
:102E9000CDB7DEB762970FB6F894DEBF0FBECDBFD9
:102EA0009A8B898B89899A899E012F5F3F4FB9013F
:102EB0004AE050E00E94141ACE0101960E94C21608
:102EC00062960FB6F894DEBF0FBECDBFCF91DF91F3
:102ED0000895DF93CF93CDB7DEB781E00E94E4126F
:102EE000CF91DF910895DF93CF9300D0CDB7DEB7B8
:102EF0009A838983AFE5B0E0EFE5F0E080818068F8
:102F00008C93E981FA818581813049F4A9E5B0E0AB
:102F1000E9E5F0E080818F7C80618C9308C0A9E5B1
:102F2000B0E0E9E5F0E080818B7C84608C93ACE4D8
:102F3000B0E0E981FA818081918111969C938E9312
:102F4000EFE4F0E08CE08083AEE4B0E0EEE4F0E0AB
:102F50008081282F277FE981FA818581882F90E061
:102F6000880F991F880F991F880F991F822B8C93A8
:102F7000E981FA818581813051F4EAE4F0E0A981A8
:102F8000BA8112968D919C91139791838083AEE4C0
:102F9000B0E0EEE4F0E08081982F987FE981FA813B
:102FA0008481892B8C930F900F90CF91DF9108959E
:102FB000DF93CF93CDB7DEB7AEE4B0E0EEE4F0E060
:102FC0008081887F8C93CF91DF910895DF93CF9399
:102FD00000D0CDB7DEB79A83898389819A81909397
:102FE0009B0180939A010F900F90CF91DF910895EC
:102FF0001F920F920FB60F9211242F933F934F936E
:103000005F936F937F938F939F93AF93BF93EF9350
:10301000FF93DF93CF93CDB7DEB780919A01909164
:103020009B01009729F0E0919A01F0919B0109958D
:10303000CF91DF91FF91EF91BF91AF919F918F91D0
:103040007F916F915F914F913F912F910F900FBEA4
:103050000F901F9018951F920F920FB60F92112488
:103060002F933F934F935F936F937F938F939F9390
:10307000AF93BF93EF93FF93DF93CF93CDB7DEB7BB
:1030800080919A0190919B01009729F0E0919A011B
:10309000F0919B010995CF91DF91FF91EF91BF9145
:1030A000AF919F918F917F916F915F914F913F91E0
:1030B0002F910F900FBE0F901F901895DF93CF9315
:1030C00000D000D0CDB7DEB79C838B831A821982E3
:1030D000EBE2F0E082E08083EAE2F0E088E98083DE
:1030E000A0E4B0E0E0E4F0E08081282F2F7CEB81C9
:1030F000FC818181882F90E082959295907F98271E
:10310000807F9827822B8C93A0E4B0E0E0E4F0E08D
:103110008081282F277FEB81FC818281882F90E09E
:10312000880F991F880F991F880F991F822B8C93E6
:10313000A0E4B0E0E0E4F0E08081282F2D7FEB8177
:10314000FC818081882F90E0880F991F822B8C93BF
:10315000EB81FC818081833839F4AAE2B0E0EAE2B5
:10316000F0E0808184608C93EB81FC818381948189
:10317000A581B681880F991FAA1FBB1F880F991FB1
:10318000AA1FBB1F880F991FAA1FBB1F9C01AD015F
:1031900080E092E1AAE7B0E0BC01CD010E94BB193A
:1031A000DA01C90101979A838983E0E4F0E089811B
:1031B0009A81892F99278083E9E2F0E089818083D1
:1031C0000F900F900F900F90CF91DF910895DF93A4
:1031D000CF930F92CDB7DEB78983EBE2F0E0808129
:1031E000882F90E0807290700097B9F3ECE2F0E0E5
:1031F000898180830F90CF91DF910895DF93CF93E2
:10320000CDB7DEB7EBE2F0E080818823DCF7ECE2BB
:10321000F0E08081CF91DF910895DF93CF9300D0CC
:103220000F92CDB7DEB79B838A8319820EC0898146
:10323000282F30E08A819B81FC01E20FF31F8081FF
:103240000E94E71889818F5F89838981282F30E068
:103250008A819B81FC01E20FF31F8081882339F76B
:103260000F900F900F90CF91DF9108950F931F93C0
:10327000DF93CF9300D00F92CDB7DEB79B838A83C5
:1032800019828981282F30E08A819B818C01020F6D
:10329000131F0E94FE18F80180830FC089818F5F81
:1032A00089838981282F30E08A819B818C01020FDC
:1032B000131F0E94FE18F80180838981282F30E0B7
:1032C0008A819B81FC01E20FF31F8081833231F7F9
:1032D0008981282F30E08A819B81FC01E20FF31F56
:1032E00010820F900F900F90CF91DF911F910F914F
:1032F0000895DF93CF9300D0CDB7DEB79A8389834B
:1033000089819A8190939D0180939C010F900F90E9
:10331000CF91DF9108951F920F920FB60F92112453
:103320002F933F934F935F936F937F938F939F93CD
:10333000AF93BF93EF93FF93DF93CF93CDB7DEB7F8
:10334000E0919C01F0919D01ACE2B0E08C91099577
:10335000CF91DF91FF91EF91BF91AF919F918F91AD
:103360007F916F915F914F913F912F910F900FBE81
:103370000F901F901895A1E21A2EAA1BBB1BFD01EE
:103380000DC0AA1FBB1FEE1FFF1FA217B307E40744
:10339000F50720F0A21BB30BE40BF50B661F771F9C
:1033A000881F991F1A9469F760957095809590957C
:1033B0009B01AC01BD01CF0108952F923F924F9226
:1033C0005F926F927F928F929F92AF92BF92CF92B5
:1033D000DF92EF92FF920F931F93CF93DF93CDB7BE
:1033E000DEB7CA1BDB0B0FB6F894DEBF0FBECDBF36
:1033F00009942A88398848885F846E847D848C8407
:103400009B84AA84B984C884DF80EE80FD800C810F
:103410001B81AA81B981CE0FD11D0FB6F894DEBFF2
:103420000FBECDBFED010895FB019F01E89442302E
:10343000C4F04532B4F44A3029F497FB1EF4909559
:1034400081959F4F642F77270E94451A805D8A33AC
:103450000CF0895D8193CB010097A1F716F45DE232
:1034600051931082C9010C94351ADC01FC01672FBD
:1034700071917723E1F7329704C07C916D9370834B
:103480006291AE17BF07C8F30895AA1BBB1B51E199
:1034900007C0AA1FBB1FA617B70710F0A61BB70BC4
:1034A000881F991F5A95A9F780959095BC01CD0169
:0634B0000895F894FFCF1F
:1034B600446F6F72206973206F70656E696E670066
:1034C600446F6F72206F70656E656400446F6F7233
:1034D60020697320436C6F73696E6700202020217A
:1034E60021414C455254212100456E746572207469
:1034F600686520706173732E00636F727265637402
:103506002070617373776F72640077726F6E6720D5
:10351600706173732C20796F750068617665200081
:10352600617474656D70747300456E7465722061A4
:103536002070617373776F72640052652D656E74C7
:1035460065722074686520706173730070617373AF
:10355600776F726420736574007375636365737344
:1035660066756C6C79006E6F74206D617463686546
:103576006400656E746572206E6577207061737382
:1035860000636865636B696E67206D656D6F727940
:10359600006D656D6F7279206572726F7221006CB5
:1035A6006F6164696E672073797374656D00646119
:1035B600746100796F75206861766520746F002BE1
:1035C600203A206F70656E20646F6F72002D203A6E
:1035D600206368616E676520706173730000000088
:0635E600000000000000DF
:00000001FF
